:020000020000FC
:100000000C94330100001895000018950000189515
:10001000000018950000189500001895000018952C
:10002000000018950000189500001895000018951C
:100030000000189500001895000018950C948B018D
:1000400000001895000018950000189500001895FC
:1000500000001895000018950000189500001895EC
:10010000B2C08682808280827D807A7D7A7D7D8089
:10011000808280828380867D867D838080828082CB
:100120007A82857A847C827E8180837D83828382C9
:100130007A827A827A7D7A7D837D8682827D827DD3
:10014000808280827D7D7D7D7A827A8280828682B5
:100150007A7D7E7D827D867D867D827F7E807A82AD
:100160007A827E8282828682867D8380808280827D
:100170008080807D807D7D7D7A7D7A7D7A807A82A7
:10018000868282827E827A8280828080807D807D6B
:100190007D7D7A7D7A7D7A807A82868282827E8275
:1001A0007A82203120726579616C50887A857780F7
:1001B000757A77777A758077857A88808A85888856
:1001C000858A808A8B8A868A828A7E8A7A8A758BD9
:1001D000758678827A7E7C7A7E758175807A827E59
:1001E00084828686888B8B8B75807575758A758AF7
:1001F000808A8B8B8A808A758A758B75807575006D
:1002000002000000000002020202020202020202D8
:1002100002000000000002020202020202020202C8
:10022000BE00BE16BEEABE2CBED4BE42BEBEBE5886
:10023000D4BED4D4D4EAD400D416D42CD442D458C6
:100240005800581658EA582C58D4584258BE585896
:1002500042BE42D442EA42004216422C4242425836
:100260000000000001000FE00EBF0FEF0DBF00E027
:100270000BBF00EC05BF00E808B90CE003BF0FEFAF
:1002800001BF02E007BF0FEF0ABB00E00BBB0FEF9F
:1002900007BB00E008BB0FEF05BB0FEF01BB00E0A1
:1002A00002BB00EF02B90FE003B978946ED078D0AA
:1002B00002D060D080C0EED300E300930080EFD383
:1002C00000930080F1D3009300801FD00FE30093D0
:1002D00000801BD008E00093008017D001E000935D
:1002E000008013D008E3009300800FD00EE000934D
:1002F00000800BD006E00093008007D0002708950F
:1003000001E00093008001D008950091008007FD76
:10031000FCCFCAD308954FB67395703349F577274C
:100320000F931F932F933F934F935F936F938F93ED
:100330009F93AF93BF93CF93DF93EF93FF930F926E
:10034000ADEFB5E0C6E6D1E0E0E0F0E00E94A70244
:100350000F90FF91EF91DF91CF91BF91AF919F915E
:100360008F916F915F914F913F912F911F910F91BD
:100370004FBE189529E0A4551E91109300C0C5DF0B
:100380002A9509F0F9CFA35A08950DEFE2E0F1E0C4
:10039000A0E0B5E0C8950D92E3950A95D9F70895C8
:1003A00006E6E0E0F2E0C0E0D1E0C8950992E3950E
:1003B0000A95D9F7089501D0FECFC4508A919A9139
:1003C00022E302D000E204C09ED02A95E9F7089506
:1003D00040E427E0C41B5A91C40FCF5F4A955130C7
:1003E00051F08A919A9163E008D02A95E1F70A9535
:1003F00081F7CA5B0895C250FACF01310CF40CC0EA
:100400000931B4F407312CF50531CCF50331A4F5ED
:10041000023199F1013191F1093054F40730CCF4F3
:1004200005306CF5033044F5023039F1013031F11B
:10043000AD551DE03E91380F38BB3E91390F32BBB0
:100440001A95C1F7A9586A9599F70131A4F40131B9
:100450008CF0A75710E13E91380F38BB3E91390F11
:1004600032BB1A95C1F7A9566A9599F701311CF468
:10047000013104F05FC052C013C023C033C0A7597C
:100480001CE03E91380F38BB3E91390F32BB1A95B4
:10049000C1F7A1556A9599F701316CF7013154F311
:1004A000AF5A1BE03E91380F38BB3E91390F32BB3B
:1004B0001A95C1F7AB536A9599F701317CF5013173
:1004C000CCF2A55C1CE03E91380F38BB3E91390F51
:1004D00032BB1A95C1F7A3526A9599F70131F4F42A
:1004E000013144F1AD5D10E13E91380F38BB3E91D2
:1004F000390F32BB1A95C1F7A3506A9599F70131AC
:100500006CF40131BCF01CE03E91380F38BB3E91D9
:10051000390F32BB1A95C1F7A85E0895A85112E1B0
:100520003E91380F38BB3E91390F32BB1A95C1F757
:10053000A45C0895AC531CE03E91380F38BB3E914B
:10054000390F32BB1A95C1F7AC5A0895089598D265
:10055000B0D211B11F30D1F398D2ABD221B1203F2C
:10056000A9F31E3039F01D3069F01B30B1F017309F
:1005700099F10895203E09F00895C35020E02883A2
:10058000CD5F0895203B09F00895C650288108E505
:1005900020132A5E2883CA5F0895203729F0203D62
:1005A00059F0203E89F00895C550288108E52013B0
:1005B0002A5E2883CB5F0895C55028810EEB201357
:1005C00026512883CB5F0895C1508A910A9100304B
:1005D00079F0013061F00895203B09F00895C6508C
:1005E00028810EEB201326512883CA5F08952DC061
:1005F000C1500A911A9130E402C0CA5B08952A9151
:100600003A95021721F0C1503A95B9F3F8CF3A95CF
:100610002A91121719F0303081F3F1CF30320CF4F7
:1006200003C0813021F00EC0823009F00BC0355478
:100630003195CF5FC30FC35021E02883CA9538831B
:10064000CC5F08953654C31B08950A911A912A91DC
:10065000CA5FC01B38814A91632F742F311B421B24
:100660000631B4F00A3174F10E316CF1023264F1EA
:1006700004325CF1063254F1063354F00A3314F1BB
:100680000E330CF1023404F10434FCF00634F4F0BF
:10069000CF5FC00F502F57505695595BC51B8881AF
:1006A000C50FC2509881CE5F303029F03631C9F085
:1006B0003A3EB9F0D4C1823011F0803091F09130DF
:1006C00031F00AC01AC080C098C0C3C0CFC0463144
:1006D00099F04C32D1F0C3C14A3E71F0443DA9F0CB
:1006E000BEC1913019F0923021F0B9C1463121F0EC
:1006F000B6C14A3E09F0B3C1EAC0CF5FC00F50E0B7
:10070000303019F0403021F00895721724F409C0F8
:1007100061176CF412C04651403071F3765137D0F6
:10072000FACF4A5E403041F37A5E31D0FACF36518B
:10073000303049F066512BD0FACF3A5E303041F07C
:100740006A5E25D0FACF563541F0563631F0D4CF17
:10075000563581F0563671F0CFCFC01BC45F9AEE8C
:100760009883CC50C00FC51BCA5F90E09883C650D9
:10077000C50FF6C0C01BC25F96E19883CE50C00F74
:10078000C51BC95F90E09883C750C50FE9C080E4DE
:10079000C65001D008959A918A95691721F0C150E9
:1007A0008A9541F0F8CF8A959A91791729F080308F
:1007B00009F0F1CFCA5B08958554CF5FC81B8F91B4
:1007C0008F918F918F914BC1CF5FC00F50E03C3222
:1007D00039F0343D29F0363141F03A3E31F03FC135
:1007E000463141F04A3E31F03AC14C3219F0443DB5
:1007F00009F035C16CC089CF8BCFCF5FC00F50E0FF
:10080000341721F03195341721F029C161172CF4E8
:100810000BC0319561177CF415C03651303051F35F
:1008200066517651B4DFF9CF3A5E303019F36A5E23
:100830007A5EADDFF9CF36513030E1F266517A5E43
:10084000A6DFF9CF3A5E3030A9F26A5E76519FDFBB
:10085000F9CFCF5FC00F50E0303069F2403061F225
:100860003417A1F231953417A1F2F9C0CF5FC00F50
:10087000502F57505695595BC51B8881C50F403086
:1008800029F0463149F04A3E39F0E9C0823021F47E
:100890003C3299F0343D39F03030C9F03631B9F09E
:1008A0003A3EA9F0DCC0C51BC95F9881C750C50F8F
:1008B00082E09813D4C03C522BCFC51BCA5F9881ED
:1008C000C650C50F82E09813CAC03A5E21CFC2500D
:1008D0008881C45040E40CC0CA5B563529F05636B6
:1008E000F9F1503011F43CC03BC03030C9F1B7C011
:1008F0006A914A95161721F0C1504A9569F3F8CFCD
:100900004A957A91271719F0403031F3F1CF4032F0
:100910000CF404C012D0813079F004C00ED08230C3
:1009200059F000C0563571F0563661F0503009F478
:1009300009C0303009F006C092C045544195CF5FE0
:10094000C40F0895C41B9AE09883CA959883C395F1
:10095000C40F47504695495BC41B91E09883C40F70
:10096000C01B1883CA952883CF5FC00F503029F071
:10097000C51B90E09883C50F00C0C35090E09883DA
:10098000CD5F8A91C395C6559881CA5A913031F08E
:10099000C6569881CA59913009F010C090E0891369
:1009A00012D097E5909300C0B0DC99E4909300C01A
:1009B000ACDC9EE4909300C0A8DC0895C2509881FE
:1009C0009130B9F001C016C001E00883CE5F10E09D
:1009D000811310D090E19093008097DC9093008079
:1009E00094DC91E3909300C090DC90E2909300C07F
:1009F000089520C0CA9590E09883C39590E19093A4
:100A0000008083DC9093008080DC909300807DDC0C
:100A100090E2909300C079DC909300C076DC9093D4
:100A200000C073DC90E1909300806FDC90930080B5
:100A30006CDC089502E00883CE5F10E08113DADFFA
:100A400090E19093008061DC909300805EDC92E303
:100A5000909300C05ADC90E2909300C008959A9160
:100A600081E0981302D0C395089591E098839AE3AA
:100A7000909300C04ADC98E2909300C046DC089551
:100A800000EF02B90FE003B908950FE002B900EFDB
:100A900003B90895FEE4EDE13197F1F70895F0E22E
:100AA000E6E03197F1F70895F0E0E6EC3197F1F7E1
:0C0AB0000895F0E0E8E03197F1F70895B8
:00000001FF
